{"abi":[{"type":"constructor","inputs":[],"stateMutability":"nonpayable"},{"type":"receive","stateMutability":"payable"},{"type":"function","name":"BASIS_POINTS","inputs":[],"outputs":[{"name":"","type":"uint256","internalType":"uint256"}],"stateMutability":"view"},{"type":"function","name":"acceptSubmission","inputs":[{"name":"_submissionId","type":"uint256","internalType":"uint256"}],"outputs":[],"stateMutability":"nonpayable"},{"type":"function","name":"approveDeliverable","inputs":[{"name":"_submissionId","type":"uint256","internalType":"uint256"}],"outputs":[],"stateMutability":"nonpayable"},{"type":"function","name":"brandBriefs","inputs":[{"name":"","type":"address","internalType":"address"},{"name":"","type":"uint256","internalType":"uint256"}],"outputs":[{"name":"","type":"uint256","internalType":"uint256"}],"stateMutability":"view"},{"type":"function","name":"briefCounter","inputs":[],"outputs":[{"name":"","type":"uint256","internalType":"uint256"}],"stateMutability":"view"},{"type":"function","name":"briefSubmissions","inputs":[{"name":"","type":"uint256","internalType":"uint256"},{"name":"","type":"uint256","internalType":"uint256"}],"outputs":[{"name":"","type":"uint256","internalType":"uint256"}],"stateMutability":"view"},{"type":"function","name":"briefs","inputs":[{"name":"","type":"uint256","internalType":"uint256"}],"outputs":[{"name":"briefId","type":"uint256","internalType":"uint256"},{"name":"brand","type":"address","internalType":"address"},{"name":"title","type":"string","internalType":"string"},{"name":"description","type":"string","internalType":"string"},{"name":"contentRequirements","type":"string","internalType":"string"},{"name":"paymentPerCreator","type":"uint256","internalType":"uint256"},{"name":"creatorsNeeded","type":"uint256","internalType":"uint256"},{"name":"selectedCreators","type":"uint256","internalType":"uint256"},{"name":"totalEscrowed","type":"uint256","internalType":"uint256"},{"name":"submissionDeadline","type":"uint256","internalType":"uint256"},{"name":"contentDeadline","type":"uint256","internalType":"uint256"},{"name":"status","type":"uint8","internalType":"enum YourContract.BriefStatus"},{"name":"createdAt","type":"uint256","internalType":"uint256"}],"stateMutability":"view"},{"type":"function","name":"cancelBrief","inputs":[{"name":"_briefId","type":"uint256","internalType":"uint256"}],"outputs":[],"stateMutability":"nonpayable"},{"type":"function","name":"closeBrief","inputs":[{"name":"_briefId","type":"uint256","internalType":"uint256"}],"outputs":[],"stateMutability":"nonpayable"},{"type":"function","name":"createBrief","inputs":[{"name":"_title","type":"string","internalType":"string"},{"name":"_description","type":"string","internalType":"string"},{"name":"_contentRequirements","type":"string","internalType":"string"},{"name":"_paymentPerCreator","type":"uint256","internalType":"uint256"},{"name":"_creatorsNeeded","type":"uint256","internalType":"uint256"},{"name":"_submissionDeadline","type":"uint256","internalType":"uint256"},{"name":"_contentDeadline","type":"uint256","internalType":"uint256"}],"outputs":[{"name":"","type":"uint256","internalType":"uint256"}],"stateMutability":"payable"},{"type":"function","name":"creatorSubmissions","inputs":[{"name":"","type":"address","internalType":"address"},{"name":"","type":"uint256","internalType":"uint256"}],"outputs":[{"name":"","type":"uint256","internalType":"uint256"}],"stateMutability":"view"},{"type":"function","name":"getActiveBriefs","inputs":[],"outputs":[{"name":"","type":"uint256[]","internalType":"uint256[]"}],"stateMutability":"view"},{"type":"function","name":"getAllBriefs","inputs":[],"outputs":[{"name":"","type":"uint256[]","internalType":"uint256[]"}],"stateMutability":"view"},{"type":"function","name":"getBrandBriefs","inputs":[{"name":"_brand","type":"address","internalType":"address"}],"outputs":[{"name":"","type":"uint256[]","internalType":"uint256[]"}],"stateMutability":"view"},{"type":"function","name":"getBrief","inputs":[{"name":"_briefId","type":"uint256","internalType":"uint256"}],"outputs":[{"name":"","type":"tuple","internalType":"struct YourContract.Brief","components":[{"name":"briefId","type":"uint256","internalType":"uint256"},{"name":"brand","type":"address","internalType":"address"},{"name":"title","type":"string","internalType":"string"},{"name":"description","type":"string","internalType":"string"},{"name":"contentRequirements","type":"string","internalType":"string"},{"name":"paymentPerCreator","type":"uint256","internalType":"uint256"},{"name":"creatorsNeeded","type":"uint256","internalType":"uint256"},{"name":"selectedCreators","type":"uint256","internalType":"uint256"},{"name":"totalEscrowed","type":"uint256","internalType":"uint256"},{"name":"submissionDeadline","type":"uint256","internalType":"uint256"},{"name":"contentDeadline","type":"uint256","internalType":"uint256"},{"name":"status","type":"uint8","internalType":"enum YourContract.BriefStatus"},{"name":"createdAt","type":"uint256","internalType":"uint256"}]}],"stateMutability":"view"},{"type":"function","name":"getBriefSubmissions","inputs":[{"name":"_briefId","type":"uint256","internalType":"uint256"}],"outputs":[{"name":"","type":"uint256[]","internalType":"uint256[]"}],"stateMutability":"view"},{"type":"function","name":"getCreatorSubmissions","inputs":[{"name":"_creator","type":"address","internalType":"address"}],"outputs":[{"name":"","type":"uint256[]","internalType":"uint256[]"}],"stateMutability":"view"},{"type":"function","name":"getSubmission","inputs":[{"name":"_submissionId","type":"uint256","internalType":"uint256"}],"outputs":[{"name":"","type":"tuple","internalType":"struct YourContract.Submission","components":[{"name":"submissionId","type":"uint256","internalType":"uint256"},{"name":"briefId","type":"uint256","internalType":"uint256"},{"name":"creator","type":"address","internalType":"address"},{"name":"proposalText","type":"string","internalType":"string"},{"name":"portfolioLinks","type":"string","internalType":"string"},{"name":"deliverableLinks","type":"string","internalType":"string"},{"name":"status","type":"uint8","internalType":"enum YourContract.SubmissionStatus"},{"name":"submittedAt","type":"uint256","internalType":"uint256"},{"name":"paymentReleased","type":"uint256","internalType":"uint256"}]}],"stateMutability":"view"},{"type":"function","name":"getSubmissionsBatch","inputs":[{"name":"_submissionIds","type":"uint256[]","internalType":"uint256[]"}],"outputs":[{"name":"","type":"tuple[]","internalType":"struct YourContract.Submission[]","components":[{"name":"submissionId","type":"uint256","internalType":"uint256"},{"name":"briefId","type":"uint256","internalType":"uint256"},{"name":"creator","type":"address","internalType":"address"},{"name":"proposalText","type":"string","internalType":"string"},{"name":"portfolioLinks","type":"string","internalType":"string"},{"name":"deliverableLinks","type":"string","internalType":"string"},{"name":"status","type":"uint8","internalType":"enum YourContract.SubmissionStatus"},{"name":"submittedAt","type":"uint256","internalType":"uint256"},{"name":"paymentReleased","type":"uint256","internalType":"uint256"}]}],"stateMutability":"view"},{"type":"function","name":"owner","inputs":[],"outputs":[{"name":"","type":"address","internalType":"address"}],"stateMutability":"view"},{"type":"function","name":"platformFeePercent","inputs":[],"outputs":[{"name":"","type":"uint256","internalType":"uint256"}],"stateMutability":"view"},{"type":"function","name":"rejectSubmission","inputs":[{"name":"_submissionId","type":"uint256","internalType":"uint256"}],"outputs":[],"stateMutability":"nonpayable"},{"type":"function","name":"setPlatformFee","inputs":[{"name":"_newFeePercent","type":"uint256","internalType":"uint256"}],"outputs":[],"stateMutability":"nonpayable"},{"type":"function","name":"submissionCounter","inputs":[],"outputs":[{"name":"","type":"uint256","internalType":"uint256"}],"stateMutability":"view"},{"type":"function","name":"submissions","inputs":[{"name":"","type":"uint256","internalType":"uint256"}],"outputs":[{"name":"submissionId","type":"uint256","internalType":"uint256"},{"name":"briefId","type":"uint256","internalType":"uint256"},{"name":"creator","type":"address","internalType":"address"},{"name":"proposalText","type":"string","internalType":"string"},{"name":"portfolioLinks","type":"string","internalType":"string"},{"name":"deliverableLinks","type":"string","internalType":"string"},{"name":"status","type":"uint8","internalType":"enum YourContract.SubmissionStatus"},{"name":"submittedAt","type":"uint256","internalType":"uint256"},{"name":"paymentReleased","type":"uint256","internalType":"uint256"}],"stateMutability":"view"},{"type":"function","name":"submitDeliverables","inputs":[{"name":"_submissionId","type":"uint256","internalType":"uint256"},{"name":"_deliverableLinks","type":"string","internalType":"string"}],"outputs":[],"stateMutability":"nonpayable"},{"type":"function","name":"submitProposal","inputs":[{"name":"_briefId","type":"uint256","internalType":"uint256"},{"name":"_proposalText","type":"string","internalType":"string"},{"name":"_portfolioLinks","type":"string","internalType":"string"}],"outputs":[{"name":"","type":"uint256","internalType":"uint256"}],"stateMutability":"nonpayable"},{"type":"function","name":"updateBrief","inputs":[{"name":"_briefId","type":"uint256","internalType":"uint256"},{"name":"_title","type":"string","internalType":"string"},{"name":"_description","type":"string","internalType":"string"},{"name":"_contentRequirements","type":"string","internalType":"string"}],"outputs":[],"stateMutability":"nonpayable"},{"type":"function","name":"withdrawPlatformFees","inputs":[],"outputs":[],"stateMutability":"nonpayable"},{"type":"event","name":"BriefCancelled","inputs":[{"name":"briefId","type":"uint256","indexed":true,"internalType":"uint256"},{"name":"refundAmount","type":"uint256","indexed":false,"internalType":"uint256"}],"anonymous":false},{"type":"event","name":"BriefCreated","inputs":[{"name":"briefId","type":"uint256","indexed":true,"internalType":"uint256"},{"name":"brand","type":"address","indexed":true,"internalType":"address"},{"name":"title","type":"string","indexed":false,"internalType":"string"},{"name":"paymentPerCreator","type":"uint256","indexed":false,"internalType":"uint256"},{"name":"creatorsNeeded","type":"uint256","indexed":false,"internalType":"uint256"},{"name":"submissionDeadline","type":"uint256","indexed":false,"internalType":"uint256"}],"anonymous":false},{"type":"event","name":"BriefStatusChanged","inputs":[{"name":"briefId","type":"uint256","indexed":true,"internalType":"uint256"},{"name":"newStatus","type":"uint8","indexed":false,"internalType":"enum YourContract.BriefStatus"}],"anonymous":false},{"type":"event","name":"BriefUpdated","inputs":[{"name":"briefId","type":"uint256","indexed":true,"internalType":"uint256"},{"name":"title","type":"string","indexed":false,"internalType":"string"}],"anonymous":false},{"type":"event","name":"CreatorSelected","inputs":[{"name":"submissionId","type":"uint256","indexed":true,"internalType":"uint256"},{"name":"briefId","type":"uint256","indexed":true,"internalType":"uint256"},{"name":"creator","type":"address","indexed":true,"internalType":"address"}],"anonymous":false},{"type":"event","name":"EscrowFunded","inputs":[{"name":"briefId","type":"uint256","indexed":true,"internalType":"uint256"},{"name":"amount","type":"uint256","indexed":false,"internalType":"uint256"}],"anonymous":false},{"type":"event","name":"PaymentReleased","inputs":[{"name":"submissionId","type":"uint256","indexed":true,"internalType":"uint256"},{"name":"creator","type":"address","indexed":true,"internalType":"address"},{"name":"amount","type":"uint256","indexed":false,"internalType":"uint256"}],"anonymous":false},{"type":"event","name":"SubmissionCreated","inputs":[{"name":"submissionId","type":"uint256","indexed":true,"internalType":"uint256"},{"name":"briefId","type":"uint256","indexed":true,"internalType":"uint256"},{"name":"creator","type":"address","indexed":true,"internalType":"address"},{"name":"timestamp","type":"uint256","indexed":false,"internalType":"uint256"}],"anonymous":false},{"type":"event","name":"SubmissionStatusChanged","inputs":[{"name":"submissionId","type":"uint256","indexed":true,"internalType":"uint256"},{"name":"newStatus","type":"uint8","indexed":false,"internalType":"enum YourContract.SubmissionStatus"}],"anonymous":false}],"bytecode":{"object":"0x60808060405234602b5760c86001555f80546001600160a01b0319163317905561319090816100308239f35b5f80fdfe6080604052600436101561001a575b3615610018575f80fd5b005b5f3560e01c806309d9fbd0146129e95780630e60146d1461271c57806312e8e2c3146126b25780632626845c146125e05780633cf06fa11461255e5780633e5a8eb01461221f5780633e8686cc14612139578063458e238d146120f05780634a6732271461207e5780636370460d146120155780636771425914611f0b5780637195df6c1461192e57806376c23ff1146119115780637773a9a1146118935780637d40b50e1461169c57806382bc32fc146115be5780638c639a85146115a15780638da5cb5b1461157a578063a5c99fdc14610e12578063ad73349e14610d3d578063b069d8bb14610d06578063c14f7ea814610c62578063ce2e98d714610c45578063d0b7830b14610aec578063d15f10cc1461090e578063d1a84cb6146106f0578063e1f1c4a7146106d4578063f5ea23f21461067c5763f9a92e450361000e5734610678576080366003190112610678576004356024356001600160401b03811161067857610190903690600401612c21565b906044356001600160401b038111610678576101b0903690600401612c21565b916064356001600160401b038111610678576101d0903690600401612c21565b928215158061066c575b6101e390612e9b565b825f52600460205261020560018060a01b03600160405f200154163314612ede565b825f52600460205260405f209060ff600b830154166005811015610658576106135760078201546105bf576002820183516001600160401b0381116104435761024e8254612d9f565b601f811161057a575b50806020601f8211600114610519575f9161050e575b508160011b915f199060031b1c19161790555b805160038301916001600160401b0382116104435761029f8354612d9f565b601f81116104c9575b50602090601f8311600114610462576004949392915f9183610457575b50508160011b915f199060031b1c19161790555b0183516001600160401b038111610443576102f48254612d9f565b601f81116103fe575b506020601f82116001146103755790806103659493927fef5da4bcf1b7c797697844615183053d54dc5003e077fd3193acf7cf2b8a1d0d96975f9261036a575b50508160011b915f199060031b1c19161790555b604051918291602083526020830190612ca0565b0390a2005b015190505f8061033d565b601f19821695835f52815f20965f5b8181106103e657509660019284926103659796957fef5da4bcf1b7c797697844615183053d54dc5003e077fd3193acf7cf2b8a1d0d999a106103ce575b505050811b019055610351565b01515f1960f88460031b161c191690555f80806103c1565b83830151895560019098019760209384019301610384565b825f5260205f20601f830160051c81019160208410610439575b601f0160051c01905b81811061042e57506102fd565b5f8155600101610421565b9091508190610418565b634e487b7160e01b5f52604160045260245ffd5b015190505f806102c5565b90601f19831691845f52815f20925f5b8181106104b1575091600193918560049897969410610499575b505050811b0190556102d9565b01515f1960f88460031b161c191690555f808061048c565b92936020600181928786015181550195019301610472565b835f5260205f20601f840160051c81019160208510610504575b601f0160051c01905b8181106104f957506102a8565b5f81556001016104ec565b90915081906104e3565b90508501515f61026d565b5f8481528181209250601f198416905b8181106105625750908360019493921061054a575b5050811b019055610280565b8701515f1960f88460031b161c191690555f8061053e565b9192602060018192868c015181550194019201610529565b825f5260205f20601f830160051c810191602084106105b5575b601f0160051c01905b8181106105aa5750610257565b5f815560010161059d565b9091508190610594565b60405162461bcd60e51b815260206004820152602660248201527f43616e6e6f74207570646174652061667465722073656c656374696e672063726044820152656561746f727360d01b6064820152608490fd5b60405162461bcd60e51b815260206004820152601d60248201527f43616e206f6e6c792075706461746520616374697665206272696566730000006044820152606490fd5b634e487b7160e01b5f52602160045260245ffd5b506002548311156101da565b5f80fd5b3461067857604036600319011261067857610695612d60565b6001600160a01b03165f90815260076020526040902080546024359190821015610678576020916106c591612d76565b90549060031b1c604051908152f35b34610678575f3660031901126106785760206040516127108152f35b34610678576020366003190112610678576004355f61018060405161071481612bc9565b82815282602082015260606040820152606080820152606060808201528260a08201528260c08201528260e082015282610100820152826101208201528261014082015282610160820152015280151580610902575b61077390612e9b565b5f52600460205260405f2060405161078a81612bc9565b8154815260018201546001600160a01b031660208201908152916107b060028201612dd7565b604083019081526107c360038301612dd7565b91606084019283526107d760048201612dd7565b926080850193845260058201549360a08601948552600683015460c08701908152600784015460e0880190815260088501549161010089019283526009860154936101208a01948552600a870154956101408b0196875260ff600b89015416976101608c01986005811015610658578952600c0154986101808c01998a526040519c8d809d60208252519060200152600160a01b6001900390511660408d01525160608c016101a090526101c08c0161088f91612ca0565b90518b8203601f190160808d01526108a79190612ca0565b90518a8203601f190160a08c01526108bf9190612ca0565b975160c08a01525160e0890152516101008801525161012087015251610140860152516101608501525161018084016108f791612e77565b516101a08301520390f35b5060025481111561076a565b346106785760203660031901126106785760043580151580610ae0575b61093490612f4b565b805f52600560205260405f206001810180545f52600460205260405f2061096860018060a01b036001830154163314612ede565b600683019060ff82541660068110156106585761098590156130da565b6007810190815460068201541115610aa357600b019160ff835416600581101561065857600414610a6c57600160ff198254161790556109c5815461305f565b905560ff8154166005811015610658578015908115610a61575b50610a36575b50825f51602061311b5f395f51905f52602060405160018152a2546002909101546001600160a01b0316917f47453ecd021f6c53b0c4d17a98515489cdf104ea2af1428391e231556437d91f5f80a4005b600260ff1982541617905580545f51602061313b5f395f51905f52602060405160028152a2836109e5565b6001915014856109df565b60405162461bcd60e51b815260206004820152600f60248201526e109c9a59598818d85b98d95b1b1959608a1b6044820152606490fd5b60405162461bcd60e51b8152602060048201526015602482015274105b1b0818dc99585d1bdc9cc81cd95b1958dd1959605a1b6044820152606490fd5b5060035481111561092b565b34610678575f366003190112610678575f546001600160a01b0316610b12338214612f97565b475f906001600254905b81811115610bc05784610b2f8585612fcf565b908115610b85575f80809381935af1610b46612f1c565b5015610b4e57005b60405162461bcd60e51b815260206004820152600f60248201526e15da5d1a191c985dc819985a5b1959608a1b6044820152606490fd5b60405162461bcd60e51b81526020600482015260136024820152724e6f206665657320746f20776974686472617760681b6044820152606490fd5b805f52600460205260ff600b60405f200154166005811015610658576003141580610c1f575b610bf9575b610bf49061305f565b610b1c565b92610c17610bf491855f526004602052600860405f200154906130cd565b939050610beb565b50805f52600460205260ff600b60405f2001541660058110156106585760041415610be6565b34610678575f366003190112610678576020600254604051908152f35b346106785760203660031901126106785760043580151580610cfa575b610c8890612f4b565b805f526005602052600660405f2060018101545f526004602052610cbc60018060a01b03600160405f200154163314612ede565b0160ff815416600681101561065857610cd590156130da565b600260ff198254161790555f51602061311b5f395f51905f52602060405160028152a2005b50600354811115610c7f565b34610678576040366003190112610678576024356004355f52600660205260405f208054821015610678576020916106c591612d76565b34610678576020366003190112610678576004355f52600560205260405f20805460018201549160018060a01b03600282015416610d7d60038301612dd7565b91610e03610df8610d9060048401612dd7565b610dea610d9f60058601612dd7565b91610ddc60ff6006880154169860086007890154980154986040519c8d9c8d5260208d015260408c015261012060608c01526101208b0190612ca0565b9089820360808b0152612ca0565b9087820360a0890152612ca0565b9360c0860190612cc4565b60e08401526101008301520390f35b60e0366003190112610678576004356001600160401b03811161067857610e3d903690600401612c21565b6024356001600160401b03811161067857610e5c903690600401612c21565b906044356001600160401b03811161067857610e7c903690600401612c21565b60c435825115611544576064351561150957608435156114c4574260a435111561147f5760a43581111561141f57610ed1610ebb6084356064356130ba565b612710610eca600154836130ba565b04906130cd565b34106113da57610ee260025461305f565b918260025560405194610ef486612bc9565b8386523360208701528460408701526060860152608085015260643560a085015260843560c08501525f60e08501523461010085015260a4356101208501526101408401525f610160840152426101808401525f52600460205260405f208251815560018060a01b03602084015116600182019060018060a01b03166bffffffffffffffffffffffff60a01b8254161790556002810160408401518051906001600160401b038211610443578190610fac8454612d9f565b601f811161138a575b50602090601f8311600114611327575f9261131c575b50508160011b915f199060031b1c19161790555b6003810160608401518051906001600160401b0382116104435781906110058454612d9f565b601f81116112cc575b50602090601f8311600114611269575f9261125e575b50508160011b915f199060031b1c19161790555b6004810160808401518051906001600160401b03821161044357819061105e8454612d9f565b601f811161120e575b50602090601f83116001146111ab575f926111a0575b50508160011b915f199060031b1c19161790555b60a0830151600582015560c0830151600682015560e0830151600782015561010083015160088201556101208301516009820155610140830151600a820155600b8101610160840151600581101561065857602094600c926101809260ff801983541691161790550151910155335f526008825261111560405f2060025490613081565b60025490817fbb0736412c2632262cbf458fda08e71e191ccc98e2decf232af7961f8a61779c61115060405193608085526080850190612ca0565b9260643586820152608435604082015260a43560608201528033940390a3807f911052e1be46242b46bf3c2762227ff37c000e5fe38727638096f3a17fbfe17083604051348152a2604051908152f35b01519050868061107d565b5f8581528281209350601f198516905b8181106111f657509084600195949392106111de575b505050811b019055611091565b01515f1960f88460031b161c191690558680806111d1565b929360206001819287860151815501950193016111bb565b909150835f5260205f20601f840160051c81019160208510611254575b90601f859493920160051c01905b8181106112465750611067565b5f8155849350600101611239565b909150819061122b565b015190508680611024565b5f8581528281209350601f198516905b8181106112b4575090846001959493921061129c575b505050811b019055611038565b01515f1960f88460031b161c1916905586808061128f565b92936020600181928786015181550195019301611279565b909150835f5260205f20601f840160051c81019160208510611312575b90601f859493920160051c01905b818110611304575061100e565b5f81558493506001016112f7565b90915081906112e9565b015190508680610fcb565b5f8581528281209350601f198516905b818110611372575090846001959493921061135a575b505050811b019055610fdf565b01515f1960f88460031b161c1916905586808061134d565b92936020600181928786015181550195019301611337565b909150835f5260205f20601f840160051c810191602085106113d0575b90601f859493920160051c01905b8181106113c25750610fb5565b5f81558493506001016113b5565b90915081906113a7565b60405162461bcd60e51b815260206004820152601960248201527f496e73756666696369656e7420657363726f772066756e6473000000000000006044820152606490fd5b60405162461bcd60e51b815260206004820152603260248201527f436f6e74656e7420646561646c696e65206d757374206265206166746572207360448201527175626d697373696f6e20646561646c696e6560701b6064820152608490fd5b60405162461bcd60e51b815260206004820152601760248201527f446561646c696e65206d757374206265206675747572650000000000000000006044820152606490fd5b60405162461bcd60e51b815260206004820152601c60248201527f4d757374206e656564206174206c6561737420312063726561746f72000000006044820152606490fd5b60405162461bcd60e51b815260206004820152601360248201527205061796d656e74206d757374206265203e203606c1b6044820152606490fd5b60405162461bcd60e51b815260206004820152600e60248201526d151a5d1b19481c995c5d5a5c995960921b6044820152606490fd5b34610678575f366003190112610678575f546040516001600160a01b039091168152602090f35b34610678575f366003190112610678576020600154604051908152f35b34610678575f366003190112610678576002545f60015b8281111561165757506115e79061302d565b5f9160015b8181111561160657604051806116028582612c67565b0390f35b805f52600460205260ff600b60405f2001541660058110156106585715611636575b6116319061305f565b6115ec565b9261164f8185611649611631948761306d565b5261305f565b939050611628565b805f52600460205260ff600b60405f2001541660058110156106585715611687575b6116829061305f565b6115d5565b906116946116829161305f565b919050611679565b34610678576020366003190112610678576004356001600160401b0381116106785736602382011215610678578060040135906116d882612e84565b916116e66040519384612be5565b8083526024602084019160051b8301019136831161067857602401905b8282106118835783518461171682612e84565b916117246040519384612be5565b808352611733601f1991612e84565b015f5b81811061186c5750505f5b815181101561180557806117576001928461306d565b515f52600560205260405f2060086040519161177283612bad565b80548352848101546020840152848060a01b03600282015416604084015261179c60038201612dd7565b60608401526117ad60048201612dd7565b60808401526117be60058201612dd7565b60a08401526117d760ff60068301541660c08501613021565b600781015460e084015201546101008201526117f3828661306d565b526117fe818561306d565b5001611741565b826040518091602082016020835281518091526040830190602060408260051b8601019301915f905b82821061183d57505050500390f35b9193600191939550602061185c8192603f198a82030186528851612cd1565b960192019201859493919261182e565b602090611877612fdc565b82828701015201611736565b8135815260209182019101611703565b34610678576020366003190112610678576001600160a01b036118b4612d60565b165f52600760205260405f206040519081602082549182815201915f5260205f20905f5b8181106118fb57611602856118ef81870382612be5565b60405191829182612c67565b82548452602090930192600192830192016118d8565b34610678575f366003190112610678576020600354604051908152f35b34610678576060366003190112610678576004356024356001600160401b03811161067857611961903690600401612c21565b906044356001600160401b03811161067857611981903690600401612c21565b9181151580611eff575b61199490612e9b565b815f52600460205260405f2060ff600b82015416600581101561065857611eba5760090154421015611e7557805115611e37576119d260035461305f565b9081600355604051916119e483612bad565b808352602083018481526040840192338452606085019081526080850196875260209660405191611a158984612be5565b5f80845260a0880193845260c088018181524260e08a019081526101008a0183815297835260058c526040909220985189559451600189015595516002880180546001600160a01b0319166001600160a01b039290921691909117905551805193959360038801916001600160401b038211610443578190611a978454612d9f565b601f8111611de9575b508b90601f8311600114611d84575f92611d79575b50508160011b915f199060031b1c19161790555b51805160048701916001600160401b038211610443578190611aeb8454612d9f565b601f8111611d2b575b508a90601f8311600114611cc8575f92611cbd575b50508160011b915f199060031b1c19161790555b51805160058601916001600160401b038211610443578190611b3f8454612d9f565b601f8111611c6f575b508990601f8311600114611c0c575f92611c01575b50508160011b915f199060031b1c19161790555b6006840192519260068410156106585760089360ff8019835416911617905551600784015551910155805f5260068252611bb160405f2060035490613081565b335f5260078252611bc860405f2060035490613081565b6003549060405190428252827fc154e77a4f87c3f4fc99a224dfc4cbdf1158cf508926d123429bdd7c2b8ef220853394a4604051908152f35b015190508980611b5d565b5f8581528b81209350601f198516905b8c828210611c59575050908460019594939210611c41575b505050811b019055611b71565b01515f1960f88460031b161c19169055898080611c34565b6001859682939686015181550195019301611c1c565b909150835f52895f20601f840160051c8101918b8510611cb3575b90601f859493920160051c01905b818110611ca55750611b48565b5f8155849350600101611c98565b9091508190611c8a565b015190508a80611b09565b5f8581528c81209350601f198516905b8d828210611d15575050908460019594939210611cfd575b505050811b019055611b1d565b01515f1960f88460031b161c191690558a8080611cf0565b6001859682939686015181550195019301611cd8565b909150835f528a5f20601f840160051c8101918c8510611d6f575b90601f859493920160051c01905b818110611d615750611af4565b5f8155849350600101611d54565b9091508190611d46565b015190508b80611ab5565b5f8581528d81209350601f198516908e5b828210611dd1575050908460019594939210611db9575b505050811b019055611ac9565b01515f1960f88460031b161c191690558b8080611dac565b80600186978294978701518155019601940190611d95565b909150835f528b5f20601f840160051c8101918d8510611e2d575b90601f859493920160051c01905b818110611e1f5750611aa0565b5f8155849350600101611e12565b9091508190611e04565b60405162461bcd60e51b8152602060048201526016602482015275141c9bdc1bdcd85b081d195e1d081c995c5d5a5c995960521b6044820152606490fd5b60405162461bcd60e51b815260206004820152601a60248201527f5375626d697373696f6e20646561646c696e65207061737365640000000000006044820152606490fd5b60405162461bcd60e51b815260206004820152601f60248201527f4272696566206e6f7420616363657074696e67207375626d697373696f6e73006044820152606490fd5b5060025482111561198b565b3461067857602036600319011261067857600480355f90815260209190915260409020805460018201546001600160a01b031691611f4b60028201612dd7565b611f5760038301612dd7565b91611f6460048201612dd7565b9260058201549360068301546007840154600885015491600986015493600a87015495600b88015460ff1697600c0154986040519c8d9c8d5260208d015260408c016101a090526101a08c01611fb991612ca0565b8b810360608d0152611fca91612ca0565b8a810360808c0152611fdb91612ca0565b9760a08a015260c089015260e0880152610100870152610120860152610140850152610160840161200b91612e77565b6101808301520390f35b34610678575f366003190112610678576002546120318161302d565b9060015b8181111561204b57604051806116028582612c67565b5f1981019080821161206a5780611649612065938661306d565b612035565b634e487b7160e01b5f52601160045260245ffd5b34610678576020366003190112610678576001600160a01b0361209f612d60565b165f52600860205260405f206040519081602082549182815201915f5260205f20905f5b8181106120da57611602856118ef81870382612be5565b82548452602090930192600192830192016120c3565b3461067857604036600319011261067857612109612d60565b6001600160a01b03165f90815260086020526040902080546024359190821015610678576020916106c591612d76565b3461067857602036600319011261067857600435612155612fdc565b5080151580612213575b61216890612f4b565b5f52600560205261160260405f2060086040519161218583612bad565b805483526001810154602084015260028101546001600160a01b031660408401526121b260038201612dd7565b60608401526121c360048201612dd7565b60808401526121d460058201612dd7565b60a08401526121ed60ff60068301541660c08501613021565b600781015460e08401520154610100820152604051918291602083526020830190612cd1565b5060035481111561215f565b346106785760203660031901126106785760043580151580612552575b61224590612f4b565b805f52600560205260405f2090600182019182545f52600460205260405f209061227c60018060a01b036001840154163314612ede565b6006810160ff815416600681101561065857600303612515576008830191600583549401938454116124da575f8060028194938294600460ff198254161790558754968760088301556122d0888254612fcf565b90550180549095906001600160a01b03165af16122eb612f1c565b50156124a4577f21d71db5be59bb9fa133895586b7404307dd33fb93b16db09dc6f1d9d7d231b06020849260018060a01b039054169354604051908152a35f51602061311b5f395f51905f52602060405160048152a254805f52600460205260405f205f91805f52600660205260405f2090604051808360208295549384815201905f5260205f20925f5b81811061248b57505061238b92500383612be5565b5f5b82518110156123e0576123a0818461306d565b515f52600560205260ff600660405f200154166006811015610658576004146123cc575b60010161238d565b936123d860019161305f565b9490506123c4565b508284600682015411156123f057005b600b8101805460ff1916600317905560080180549081612427575b50505f51602061313b5f395f51905f52602060405160038152a2005b5f8080938180945560018060a01b038254165af1612443612f1c565b501561245057818061240b565b60405162461bcd60e51b8152602060048201526013602482015272119959481d1c985b9cd9995c8819985a5b1959606a1b6044820152606490fd5b8454835260019485019487945060209093019201612376565b60405162461bcd60e51b815260206004820152600e60248201526d14185e5b595b9d0819985a5b195960921b6044820152606490fd5b60405162461bcd60e51b8152602060048201526013602482015272496e73756666696369656e7420657363726f7760681b6044820152606490fd5b60405162461bcd60e51b815260206004820152601560248201527410dbdb9d195b9d081b9bdd0819195b1a5d995c9959605a1b6044820152606490fd5b5060035481111561223c565b3461067857602036600319011261067857600435801515806125d4575b61258490612e9b565b5f52600660205260405f206040519081602082549182815201915f5260205f20905f5b8181106125be57611602856118ef81870382612be5565b82548452602090930192600192830192016125a7565b5060025481111561257b565b3461067857602036600319011261067857600435801515806126a6575b61260690612e9b565b805f52600460205261262860018060a01b03600160405f200154163314612ede565b805f526004602052600b60405f200160ff81541660058110156106585761266e57600160ff198254161790555f51602061313b5f395f51905f52602060405160018152a2005b60405162461bcd60e51b815260206004820152601060248201526f4272696566206e6f742061637469766560801b6044820152606490fd5b506002548111156125fd565b34610678576020366003190112610678576004356126da60018060a01b035f54163314612f97565b6103e881116126e857600155005b60405162461bcd60e51b815260206004820152600c60248201526b08ccaca40e8dede40d0d2ced60a31b6044820152606490fd5b34610678576040366003190112610678576004356024356001600160401b0381116106785761274f903690600401612c21565b90801515806129dd575b61276290612f4b565b805f52600560205260405f2060018101545f52600460205260405f209060018060a01b0360028201541633036129a157600681019160ff83541660068110156106585760010361296d57600a0154421015612928578351156128ea5760050183516001600160401b038111610443576127db8254612d9f565b601f81116128a5575b50602094601f8211600114612844579481929394955f92612839575b50508160011b915f199060031b1c19161790555b600360ff198254161790555f51602061311b5f395f51905f52602060405160038152a2005b015190508580612800565b601f19821695835f52805f20915f5b88811061288d57508360019596979810612875575b505050811b019055612814565b01515f1960f88460031b161c19169055858080612868565b91926020600181928685015181550194019201612853565b825f5260205f20601f830160051c810191602084106128e0575b601f0160051c01905b8181106128d557506127e4565b5f81556001016128c8565b90915081906128bf565b60405162461bcd60e51b815260206004820152601660248201527510dbdb9d195b9d081b1a5b9adcc81c995c5d5a5c995960521b6044820152606490fd5b60405162461bcd60e51b815260206004820152601760248201527f436f6e74656e7420646561646c696e65207061737365640000000000000000006044820152606490fd5b60405162461bcd60e51b815260206004820152600c60248201526b139bdd081858d8d95c1d195960a21b6044820152606490fd5b60405162461bcd60e51b81526020600482015260146024820152732737ba1039bab136b4b9b9b4b7b71037bbb732b960611b6044820152606490fd5b50600354811115612759565b346106785760203660031901126106785760043580151580612ba1575b612a0f90612e9b565b805f526004602052612a3160018060a01b03600160405f200154163314612ede565b805f52600460205260405f20600b810160ff815416600581101561065857600414612b68576007820154612b14575f808080949384600883960191825497889355600460ff198254161790556001808060a01b03910154165af1612a93612f1c565b5015612adf577fb4a287777785a3b9eb29ada99d88cb338a467dfe549c2a8bfec972d96e23a73460208392604051908152a25f51602061313b5f395f51905f52602060405160048152a2005b60405162461bcd60e51b815260206004820152600d60248201526c1499599d5b990819985a5b1959609a1b6044820152606490fd5b60405162461bcd60e51b815260206004820152602660248201527f43616e6e6f742063616e63656c2061667465722073656c656374696e672063726044820152656561746f727360d01b6064820152608490fd5b60405162461bcd60e51b8152602060048201526011602482015270105b1c9958591e4818d85b98d95b1b1959607a1b6044820152606490fd5b50600254811115612a06565b61012081019081106001600160401b0382111761044357604052565b6101a081019081106001600160401b0382111761044357604052565b90601f801991011681019081106001600160401b0382111761044357604052565b6001600160401b03811161044357601f01601f191660200190565b81601f8201121561067857803590612c3882612c06565b92612c466040519485612be5565b8284526020838301011161067857815f926020809301838601378301015290565b60206040818301928281528451809452019201905f5b818110612c8a5750505090565b8251845260209384019390920191600101612c7d565b805180835260209291819084018484015e5f828201840152601f01601f1916010190565b9060068210156106585752565b90815181526020820151602082015260018060a01b03604083015116604082015261010080612d3b612d29612d1760608701516101206060880152610120870190612ca0565b60808701518682036080880152612ca0565b60a086015185820360a0870152612ca0565b93612d4e60c082015160c0860190612cc4565b60e081015160e0850152015191015290565b600435906001600160a01b038216820361067857565b8054821015612d8b575f5260205f2001905f90565b634e487b7160e01b5f52603260045260245ffd5b90600182811c92168015612dcd575b6020831014612db957565b634e487b7160e01b5f52602260045260245ffd5b91607f1691612dae565b9060405191825f825492612dea84612d9f565b8084529360018116908115612e555750600114612e11575b50612e0f92500383612be5565b565b90505f9291925260205f20905f915b818310612e39575050906020612e0f928201015f612e02565b6020919350806001915483858901015201910190918492612e20565b905060209250612e0f94915060ff191682840152151560051b8201015f612e02565b9060058210156106585752565b6001600160401b0381116104435760051b60200190565b15612ea257565b60405162461bcd60e51b8152602060048201526014602482015273109c9a595988191bd95cc81b9bdd08195e1a5cdd60621b6044820152606490fd5b15612ee557565b60405162461bcd60e51b815260206004820152600f60248201526e2737ba10313934b2b31037bbb732b960891b6044820152606490fd5b3d15612f46573d90612f2d82612c06565b91612f3b6040519384612be5565b82523d5f602084013e565b606090565b15612f5257565b60405162461bcd60e51b815260206004820152601960248201527f5375626d697373696f6e20646f6573206e6f74206578697374000000000000006044820152606490fd5b15612f9e57565b60405162461bcd60e51b81526020600482015260096024820152682737ba1037bbb732b960b91b6044820152606490fd5b9190820391821161206a57565b60405190612fe982612bad565b5f6101008382815282602082015282604082015260608082015260606080820152606060a08201528260c08201528260e08201520152565b60068210156106585752565b9061303782612e84565b6130446040519182612be5565b8281528092613055601f1991612e84565b0190602036910137565b5f19811461206a5760010190565b8051821015612d8b5760209160051b010190565b805468010000000000000000811015610443576130a391600182018155612d76565b819291549060031b91821b915f19901b1916179055565b8181029291811591840414171561206a57565b9190820180921161206a57565b156130e157565b60405162461bcd60e51b8152602060048201526011602482015270105b1c9958591e481c1c9bd8d95cdcd959607a1b6044820152606490fdfeeee9095a9c28ed33b9572b6b00beb263caf00550a0d53785d2a0301e1c31a2ad7b777f3e260ac6ea3bb420dbeffec2cdb40d2f088c25495c560fd9fcc24cc338a2646970667358221220cefd93e4475de07796b8b699f3a6655f50a93316b50fca4929028000a324737b64736f6c634300081e0033","linkReferences":{}},"methodIdentifiers":{"BASIS_POINTS()":"e1f1c4a7","acceptSubmission(uint256)":"d15f10cc","approveDeliverable(uint256)":"3e5a8eb0","brandBriefs(address,uint256)":"458e238d","briefCounter()":"ce2e98d7","briefSubmissions(uint256,uint256)":"b069d8bb","briefs(uint256)":"67714259","cancelBrief(uint256)":"09d9fbd0","closeBrief(uint256)":"2626845c","createBrief(string,string,string,uint256,uint256,uint256,uint256)":"a5c99fdc","creatorSubmissions(address,uint256)":"f5ea23f2","getActiveBriefs()":"82bc32fc","getAllBriefs()":"6370460d","getBrandBriefs(address)":"4a673227","getBrief(uint256)":"d1a84cb6","getBriefSubmissions(uint256)":"3cf06fa1","getCreatorSubmissions(address)":"7773a9a1","getSubmission(uint256)":"3e8686cc","getSubmissionsBatch(uint256[])":"7d40b50e","owner()":"8da5cb5b","platformFeePercent()":"8c639a85","rejectSubmission(uint256)":"c14f7ea8","setPlatformFee(uint256)":"12e8e2c3","submissionCounter()":"76c23ff1","submissions(uint256)":"ad73349e","submitDeliverables(uint256,string)":"0e60146d","submitProposal(uint256,string,string)":"7195df6c","updateBrief(uint256,string,string,string)":"f9a92e45","withdrawPlatformFees()":"d0b7830b"},"id":0}